{
  "contractName": "Supply_chain",
  "abi": [
    {
      "inputs": [],
      "payable": false,
      "stateMutability": "nonpayable",
      "type": "constructor"
    },
    {
      "constant": true,
      "inputs": [
        {
          "internalType": "uint256",
          "name": "",
          "type": "uint256"
        }
      ],
      "name": "cars_lists",
      "outputs": [
        {
          "internalType": "string",
          "name": "vin",
          "type": "string"
        },
        {
          "internalType": "string",
          "name": "model_name",
          "type": "string"
        },
        {
          "internalType": "string",
          "name": "mfg_location",
          "type": "string"
        },
        {
          "internalType": "string",
          "name": "mfg_date",
          "type": "string"
        },
        {
          "internalType": "uint256",
          "name": "price",
          "type": "uint256"
        },
        {
          "internalType": "string",
          "name": "engine_pid",
          "type": "string"
        },
        {
          "internalType": "string",
          "name": "battery_pid",
          "type": "string"
        },
        {
          "internalType": "string",
          "name": "brakes_pid",
          "type": "string"
        },
        {
          "internalType": "string",
          "name": "wheels_pid",
          "type": "string"
        },
        {
          "internalType": "address",
          "name": "owner",
          "type": "address"
        },
        {
          "internalType": "uint256",
          "name": "sl_no",
          "type": "uint256"
        }
      ],
      "payable": false,
      "stateMutability": "view",
      "type": "function"
    },
    {
      "constant": true,
      "inputs": [
        {
          "internalType": "uint256",
          "name": "",
          "type": "uint256"
        }
      ],
      "name": "list_of_buy_car_details",
      "outputs": [
        {
          "internalType": "address",
          "name": "buyer_address",
          "type": "address"
        },
        {
          "internalType": "address",
          "name": "seller_address",
          "type": "address"
        },
        {
          "internalType": "string",
          "name": "vin",
          "type": "string"
        },
        {
          "internalType": "string",
          "name": "transaction_date",
          "type": "string"
        }
      ],
      "payable": false,
      "stateMutability": "view",
      "type": "function"
    },
    {
      "constant": true,
      "inputs": [
        {
          "internalType": "uint256",
          "name": "",
          "type": "uint256"
        }
      ],
      "name": "list_of_buy_part_details",
      "outputs": [
        {
          "internalType": "address",
          "name": "buyer_address",
          "type": "address"
        },
        {
          "internalType": "address",
          "name": "seller_address",
          "type": "address"
        },
        {
          "internalType": "string",
          "name": "part_id",
          "type": "string"
        },
        {
          "internalType": "string",
          "name": "transaction_date",
          "type": "string"
        }
      ],
      "payable": false,
      "stateMutability": "view",
      "type": "function"
    },
    {
      "constant": true,
      "inputs": [],
      "name": "number_of_buyed_cars",
      "outputs": [
        {
          "internalType": "uint256",
          "name": "",
          "type": "uint256"
        }
      ],
      "payable": false,
      "stateMutability": "view",
      "type": "function"
    },
    {
      "constant": true,
      "inputs": [],
      "name": "number_of_buyed_parts",
      "outputs": [
        {
          "internalType": "uint256",
          "name": "",
          "type": "uint256"
        }
      ],
      "payable": false,
      "stateMutability": "view",
      "type": "function"
    },
    {
      "constant": true,
      "inputs": [],
      "name": "number_of_cars",
      "outputs": [
        {
          "internalType": "uint256",
          "name": "",
          "type": "uint256"
        }
      ],
      "payable": false,
      "stateMutability": "view",
      "type": "function"
    },
    {
      "constant": true,
      "inputs": [],
      "name": "number_of_parts",
      "outputs": [
        {
          "internalType": "uint256",
          "name": "",
          "type": "uint256"
        }
      ],
      "payable": false,
      "stateMutability": "view",
      "type": "function"
    },
    {
      "constant": true,
      "inputs": [
        {
          "internalType": "uint256",
          "name": "",
          "type": "uint256"
        }
      ],
      "name": "parts_lists",
      "outputs": [
        {
          "internalType": "string",
          "name": "part_id",
          "type": "string"
        },
        {
          "internalType": "string",
          "name": "part_name",
          "type": "string"
        },
        {
          "internalType": "uint256",
          "name": "part_weight",
          "type": "uint256"
        },
        {
          "internalType": "address",
          "name": "owner",
          "type": "address"
        },
        {
          "internalType": "string",
          "name": "mfg_date",
          "type": "string"
        },
        {
          "internalType": "uint256",
          "name": "price",
          "type": "uint256"
        },
        {
          "internalType": "string",
          "name": "part_location",
          "type": "string"
        },
        {
          "internalType": "uint256",
          "name": "sl_no",
          "type": "uint256"
        }
      ],
      "payable": false,
      "stateMutability": "view",
      "type": "function"
    },
    {
      "constant": false,
      "inputs": [
        {
          "internalType": "string",
          "name": "_partId",
          "type": "string"
        },
        {
          "internalType": "string",
          "name": "_partname",
          "type": "string"
        },
        {
          "internalType": "uint256",
          "name": "_partWeight",
          "type": "uint256"
        },
        {
          "internalType": "address",
          "name": "_owner",
          "type": "address"
        },
        {
          "internalType": "string",
          "name": "_mfgDate",
          "type": "string"
        },
        {
          "internalType": "uint256",
          "name": "_price",
          "type": "uint256"
        },
        {
          "internalType": "string",
          "name": "_location",
          "type": "string"
        }
      ],
      "name": "addParts",
      "outputs": [],
      "payable": false,
      "stateMutability": "nonpayable",
      "type": "function"
    },
    {
      "constant": false,
      "inputs": [
        {
          "internalType": "address payable",
          "name": "_buyer",
          "type": "address"
        },
        {
          "internalType": "address payable",
          "name": "_seller",
          "type": "address"
        },
        {
          "internalType": "string",
          "name": "_partid",
          "type": "string"
        },
        {
          "internalType": "string",
          "name": "_trdate",
          "type": "string"
        }
      ],
      "name": "buyParts",
      "outputs": [],
      "payable": false,
      "stateMutability": "nonpayable",
      "type": "function"
    },
    {
      "constant": false,
      "inputs": [
        {
          "internalType": "string",
          "name": "_vin",
          "type": "string"
        },
        {
          "internalType": "string",
          "name": "_model_name",
          "type": "string"
        },
        {
          "internalType": "string",
          "name": "_mfg_location",
          "type": "string"
        },
        {
          "internalType": "string",
          "name": "_mfg_date",
          "type": "string"
        },
        {
          "internalType": "uint256",
          "name": "_price",
          "type": "uint256"
        },
        {
          "internalType": "string",
          "name": "_pid1",
          "type": "string"
        },
        {
          "internalType": "string",
          "name": "_pid2",
          "type": "string"
        },
        {
          "internalType": "string",
          "name": "_pid3",
          "type": "string"
        },
        {
          "internalType": "string",
          "name": "_pid4",
          "type": "string"
        },
        {
          "internalType": "address",
          "name": "_owner",
          "type": "address"
        }
      ],
      "name": "buildCar",
      "outputs": [],
      "payable": false,
      "stateMutability": "nonpayable",
      "type": "function"
    },
    {
      "constant": false,
      "inputs": [
        {
          "internalType": "address payable",
          "name": "_buyer",
          "type": "address"
        },
        {
          "internalType": "address payable",
          "name": "_seller",
          "type": "address"
        },
        {
          "internalType": "string",
          "name": "_vin",
          "type": "string"
        },
        {
          "internalType": "string",
          "name": "_trdate1",
          "type": "string"
        }
      ],
      "name": "buyCar",
      "outputs": [],
      "payable": false,
      "stateMutability": "nonpayable",
      "type": "function"
    }
  ],
  "bytecode": "0x608060405234801561001057600080fd5b5060006001819055506000600381905550600060048190555060006007819055506129f2806100406000396000f3fe608060405234801561001057600080fd5b50600436106100b45760003560e01c806379076996116100715780637907699614610185578063876d11d1146101bc57806390763370146101d85780639dafaaf6146101f4578063a68bcb9614610227578063ced38ec71461025a576100b4565b806327555796146100b95780633d18de66146100d55780633d94be86146100f357806357443c8f1461010f5780635ab27e941461014957806366d1483814610167575b600080fd5b6100d360048036036100ce9190810190612445565b610278565b005b6100dd6103ce565b6040516100ea9190612823565b60405180910390f35b61010d60048036036101089190810190612217565b6103d4565b005b61012960048036036101249190810190612543565b610cd4565b6040516101409b9a999897969594939291906126a6565b60405180910390f35b61015161120e565b60405161015e9190612823565b60405180910390f35b61016f611214565b60405161017c9190612823565b60405180910390f35b61019f600480360361019a9190810190612543565b61121a565b6040516101b3989796959493929190612789565b60405180910390f35b6101d660048036036101d19190810190612217565b6114e2565b005b6101f260048036036101ed91908101906122aa565b611af4565b005b61020e60048036036102099190810190612543565b611cce565b60405161021e9493929190612653565b60405180910390f35b610241600480360361023c9190810190612543565b611e6e565b6040516102519493929190612653565b60405180910390f35b61026261200e565b60405161026f9190612823565b60405180910390f35b60018054016001819055506040518061010001604052808881526020018781526020018681526020018573ffffffffffffffffffffffffffffffffffffffff16815260200184815260200183815260200182815260200160015481525060008060015481526020019081526020016000206000820151816000019080519060200190610305929190612014565b506020820151816001019080519060200190610322929190612014565b506040820151816002015560608201518160030160006101000a81548173ffffffffffffffffffffffffffffffffffffffff021916908373ffffffffffffffffffffffffffffffffffffffff1602179055506080820151816004019080519060200190610390929190612014565b5060a0820151816005015560c08201518160060190805190602001906103b7929190612014565b5060e0820151816007015590505050505050505050565b60075481565b60016007540160078190555060405180608001604052808573ffffffffffffffffffffffffffffffffffffffff1681526020018473ffffffffffffffffffffffffffffffffffffffff1681526020018381526020018281525060066000600754815260200190815260200160002060008201518160000160006101000a81548173ffffffffffffffffffffffffffffffffffffffff021916908373ffffffffffffffffffffffffffffffffffffffff16021790555060208201518160010160006101000a81548173ffffffffffffffffffffffffffffffffffffffff021916908373ffffffffffffffffffffffffffffffffffffffff16021790555060408201518160020190805190602001906104ec929190612014565b506060820151816003019080519060200190610509929190612014565b5090505060006001905060008090505b6004548211610ccc5761052a612094565b6005600084815260200190815260200160002060405180610160016040529081600082018054600181600116156101000203166002900480601f0160208091040260200160405190810160405280929190818152602001828054600181600116156101000203166002900480156105e25780601f106105b7576101008083540402835291602001916105e2565b820191906000526020600020905b8154815290600101906020018083116105c557829003601f168201915b50505050508152602001600182018054600181600116156101000203166002900480601f0160208091040260200160405190810160405280929190818152602001828054600181600116156101000203166002900480156106845780601f1061065957610100808354040283529160200191610684565b820191906000526020600020905b81548152906001019060200180831161066757829003601f168201915b50505050508152602001600282018054600181600116156101000203166002900480601f0160208091040260200160405190810160405280929190818152602001828054600181600116156101000203166002900480156107265780601f106106fb57610100808354040283529160200191610726565b820191906000526020600020905b81548152906001019060200180831161070957829003601f168201915b50505050508152602001600382018054600181600116156101000203166002900480601f0160208091040260200160405190810160405280929190818152602001828054600181600116156101000203166002900480156107c85780601f1061079d576101008083540402835291602001916107c8565b820191906000526020600020905b8154815290600101906020018083116107ab57829003601f168201915b5050505050815260200160048201548152602001600582018054600181600116156101000203166002900480601f0160208091040260200160405190810160405280929190818152602001828054600181600116156101000203166002900480156108745780601f1061084957610100808354040283529160200191610874565b820191906000526020600020905b81548152906001019060200180831161085757829003601f168201915b50505050508152602001600682018054600181600116156101000203166002900480601f0160208091040260200160405190810160405280929190818152602001828054600181600116156101000203166002900480156109165780601f106108eb57610100808354040283529160200191610916565b820191906000526020600020905b8154815290600101906020018083116108f957829003601f168201915b50505050508152602001600782018054600181600116156101000203166002900480601f0160208091040260200160405190810160405280929190818152602001828054600181600116156101000203166002900480156109b85780601f1061098d576101008083540402835291602001916109b8565b820191906000526020600020905b81548152906001019060200180831161099b57829003601f168201915b50505050508152602001600882018054600181600116156101000203166002900480601f016020809104026020016040519081016040528092919081815260200182805460018160011615610100020316600290048015610a5a5780601f10610a2f57610100808354040283529160200191610a5a565b820191906000526020600020905b815481529060010190602001808311610a3d57829003601f168201915b505050505081526020016009820160009054906101000a900473ffffffffffffffffffffffffffffffffffffffff1673ffffffffffffffffffffffffffffffffffffffff1673ffffffffffffffffffffffffffffffffffffffff168152602001600a82015481525050905084604051602001610ad6919061263c565b604051602081830303815290604052805190602001208160000151604051602001610b019190612625565b604051602081830303815290604052805190602001201415610cc0578681610120019073ffffffffffffffffffffffffffffffffffffffff16908173ffffffffffffffffffffffffffffffffffffffff168152505080600560008581526020019081526020016000206000820151816000019080519060200190610b86929190612014565b506020820151816001019080519060200190610ba3929190612014565b506040820151816002019080519060200190610bc0929190612014565b506060820151816003019080519060200190610bdd929190612014565b506080820151816004015560a0820151816005019080519060200190610c04929190612014565b5060c0820151816006019080519060200190610c21929190612014565b5060e0820151816007019080519060200190610c3e929190612014565b50610100820151816008019080519060200190610c5c929190612014565b506101208201518160090160006101000a81548173ffffffffffffffffffffffffffffffffffffffff021916908373ffffffffffffffffffffffffffffffffffffffff16021790555061014082015181600a01559050508060800151915050610ccc565b60018301925050610519565b505050505050565b6005602052806000526040600020600091509050806000018054600181600116156101000203166002900480601f016020809104026020016040519081016040528092919081815260200182805460018160011615610100020316600290048015610d805780601f10610d5557610100808354040283529160200191610d80565b820191906000526020600020905b815481529060010190602001808311610d6357829003601f168201915b505050505090806001018054600181600116156101000203166002900480601f016020809104026020016040519081016040528092919081815260200182805460018160011615610100020316600290048015610e1e5780601f10610df357610100808354040283529160200191610e1e565b820191906000526020600020905b815481529060010190602001808311610e0157829003601f168201915b505050505090806002018054600181600116156101000203166002900480601f016020809104026020016040519081016040528092919081815260200182805460018160011615610100020316600290048015610ebc5780601f10610e9157610100808354040283529160200191610ebc565b820191906000526020600020905b815481529060010190602001808311610e9f57829003601f168201915b505050505090806003018054600181600116156101000203166002900480601f016020809104026020016040519081016040528092919081815260200182805460018160011615610100020316600290048015610f5a5780601f10610f2f57610100808354040283529160200191610f5a565b820191906000526020600020905b815481529060010190602001808311610f3d57829003601f168201915b505050505090806004015490806005018054600181600116156101000203166002900480601f016020809104026020016040519081016040528092919081815260200182805460018160011615610100020316600290048015610ffe5780601f10610fd357610100808354040283529160200191610ffe565b820191906000526020600020905b815481529060010190602001808311610fe157829003601f168201915b505050505090806006018054600181600116156101000203166002900480601f01602080910402602001604051908101604052809291908181526020018280546001816001161561010002031660029004801561109c5780601f106110715761010080835404028352916020019161109c565b820191906000526020600020905b81548152906001019060200180831161107f57829003601f168201915b505050505090806007018054600181600116156101000203166002900480601f01602080910402602001604051908101604052809291908181526020018280546001816001161561010002031660029004801561113a5780601f1061110f5761010080835404028352916020019161113a565b820191906000526020600020905b81548152906001019060200180831161111d57829003601f168201915b505050505090806008018054600181600116156101000203166002900480601f0160208091040260200160405190810160405280929190818152602001828054600181600116156101000203166002900480156111d85780601f106111ad576101008083540402835291602001916111d8565b820191906000526020600020905b8154815290600101906020018083116111bb57829003601f168201915b5050505050908060090160009054906101000a900473ffffffffffffffffffffffffffffffffffffffff169080600a015490508b565b60035481565b60015481565b6000602052806000526040600020600091509050806000018054600181600116156101000203166002900480601f0160208091040260200160405190810160405280929190818152602001828054600181600116156101000203166002900480156112c65780601f1061129b576101008083540402835291602001916112c6565b820191906000526020600020905b8154815290600101906020018083116112a957829003601f168201915b505050505090806001018054600181600116156101000203166002900480601f0160208091040260200160405190810160405280929190818152602001828054600181600116156101000203166002900480156113645780601f1061133957610100808354040283529160200191611364565b820191906000526020600020905b81548152906001019060200180831161134757829003601f168201915b5050505050908060020154908060030160009054906101000a900473ffffffffffffffffffffffffffffffffffffffff1690806004018054600181600116156101000203166002900480601f01602080910402602001604051908101604052809291908181526020018280546001816001161561010002031660029004801561142e5780601f106114035761010080835404028352916020019161142e565b820191906000526020600020905b81548152906001019060200180831161141157829003601f168201915b505050505090806005015490806006018054600181600116156101000203166002900480601f0160208091040260200160405190810160405280929190818152602001828054600181600116156101000203166002900480156114d25780601f106114a7576101008083540402835291602001916114d2565b820191906000526020600020905b8154815290600101906020018083116114b557829003601f168201915b5050505050908060070154905088565b60016003540160038190555060405180608001604052808573ffffffffffffffffffffffffffffffffffffffff1681526020018473ffffffffffffffffffffffffffffffffffffffff1681526020018381526020018281525060026000600354815260200190815260200160002060008201518160000160006101000a81548173ffffffffffffffffffffffffffffffffffffffff021916908373ffffffffffffffffffffffffffffffffffffffff16021790555060208201518160010160006101000a81548173ffffffffffffffffffffffffffffffffffffffff021916908373ffffffffffffffffffffffffffffffffffffffff16021790555060408201518160020190805190602001906115fa929190612014565b506060820151816003019080519060200190611617929190612014565b5090505060006001905060008090505b6001548211611aec57611638612104565b60008084815260200190815260200160002060405180610100016040529081600082018054600181600116156101000203166002900480601f0160208091040260200160405190810160405280929190818152602001828054600181600116156101000203166002900480156116ef5780601f106116c4576101008083540402835291602001916116ef565b820191906000526020600020905b8154815290600101906020018083116116d257829003601f168201915b50505050508152602001600182018054600181600116156101000203166002900480601f0160208091040260200160405190810160405280929190818152602001828054600181600116156101000203166002900480156117915780601f1061176657610100808354040283529160200191611791565b820191906000526020600020905b81548152906001019060200180831161177457829003601f168201915b50505050508152602001600282015481526020016003820160009054906101000a900473ffffffffffffffffffffffffffffffffffffffff1673ffffffffffffffffffffffffffffffffffffffff1673ffffffffffffffffffffffffffffffffffffffff168152602001600482018054600181600116156101000203166002900480601f0160208091040260200160405190810160405280929190818152602001828054600181600116156101000203166002900480156118935780601f1061186857610100808354040283529160200191611893565b820191906000526020600020905b81548152906001019060200180831161187657829003601f168201915b5050505050815260200160058201548152602001600682018054600181600116156101000203166002900480601f01602080910402602001604051908101604052809291908181526020018280546001816001161561010002031660029004801561193f5780601f106119145761010080835404028352916020019161193f565b820191906000526020600020905b81548152906001019060200180831161192257829003601f168201915b50505050508152602001600782015481525050905084604051602001611965919061263c565b6040516020818303038152906040528051906020012081600001516040516020016119909190612625565b604051602081830303815290604052805190602001201415611ae05786816060019073ffffffffffffffffffffffffffffffffffffffff16908173ffffffffffffffffffffffffffffffffffffffff1681525050806000808581526020019081526020016000206000820151816000019080519060200190611a13929190612014565b506020820151816001019080519060200190611a30929190612014565b506040820151816002015560608201518160030160006101000a81548173ffffffffffffffffffffffffffffffffffffffff021916908373ffffffffffffffffffffffffffffffffffffffff1602179055506080820151816004019080519060200190611a9e929190612014565b5060a0820151816005015560c0820151816006019080519060200190611ac5929190612014565b5060e082015181600701559050508060a00151915050611aec565b60018301925050611627565b505050505050565b6001600454016004819055506040518061016001604052808b81526020018a81526020018981526020018881526020018781526020018681526020018581526020018481526020018381526020018273ffffffffffffffffffffffffffffffffffffffff1681526020016004548152506005600060045481526020019081526020016000206000820151816000019080519060200190611b95929190612014565b506020820151816001019080519060200190611bb2929190612014565b506040820151816002019080519060200190611bcf929190612014565b506060820151816003019080519060200190611bec929190612014565b506080820151816004015560a0820151816005019080519060200190611c13929190612014565b5060c0820151816006019080519060200190611c30929190612014565b5060e0820151816007019080519060200190611c4d929190612014565b50610100820151816008019080519060200190611c6b929190612014565b506101208201518160090160006101000a81548173ffffffffffffffffffffffffffffffffffffffff021916908373ffffffffffffffffffffffffffffffffffffffff16021790555061014082015181600a015590505050505050505050505050565b60066020528060005260406000206000915090508060000160009054906101000a900473ffffffffffffffffffffffffffffffffffffffff16908060010160009054906101000a900473ffffffffffffffffffffffffffffffffffffffff1690806002018054600181600116156101000203166002900480601f016020809104026020016040519081016040528092919081815260200182805460018160011615610100020316600290048015611dc65780601f10611d9b57610100808354040283529160200191611dc6565b820191906000526020600020905b815481529060010190602001808311611da957829003601f168201915b505050505090806003018054600181600116156101000203166002900480601f016020809104026020016040519081016040528092919081815260200182805460018160011615610100020316600290048015611e645780601f10611e3957610100808354040283529160200191611e64565b820191906000526020600020905b815481529060010190602001808311611e4757829003601f168201915b5050505050905084565b60026020528060005260406000206000915090508060000160009054906101000a900473ffffffffffffffffffffffffffffffffffffffff16908060010160009054906101000a900473ffffffffffffffffffffffffffffffffffffffff1690806002018054600181600116156101000203166002900480601f016020809104026020016040519081016040528092919081815260200182805460018160011615610100020316600290048015611f665780601f10611f3b57610100808354040283529160200191611f66565b820191906000526020600020905b815481529060010190602001808311611f4957829003601f168201915b505050505090806003018054600181600116156101000203166002900480601f0160208091040260200160405190810160405280929190818152602001828054600181600116156101000203166002900480156120045780601f10611fd957610100808354040283529160200191612004565b820191906000526020600020905b815481529060010190602001808311611fe757829003601f168201915b5050505050905084565b60045481565b828054600181600116156101000203166002900490600052602060002090601f016020900481019282601f1061205557805160ff1916838001178555612083565b82800160010185558215612083579182015b82811115612082578251825591602001919060010190612067565b5b509050612090919061215f565b5090565b604051806101600160405280606081526020016060815260200160608152602001606081526020016000815260200160608152602001606081526020016060815260200160608152602001600073ffffffffffffffffffffffffffffffffffffffff168152602001600081525090565b604051806101000160405280606081526020016060815260200160008152602001600073ffffffffffffffffffffffffffffffffffffffff168152602001606081526020016000815260200160608152602001600081525090565b61218191905b8082111561217d576000816000905550600101612165565b5090565b90565b6000813590506121938161296a565b92915050565b6000813590506121a881612981565b92915050565b600082601f8301126121bf57600080fd5b81356121d26121cd8261286b565b61283e565b915080825260208301602083018583830111156121ee57600080fd5b6121f9838284612917565b50505092915050565b60008135905061221181612998565b92915050565b6000806000806080858703121561222d57600080fd5b600061223b87828801612199565b945050602061224c87828801612199565b935050604085013567ffffffffffffffff81111561226957600080fd5b612275878288016121ae565b925050606085013567ffffffffffffffff81111561229257600080fd5b61229e878288016121ae565b91505092959194509250565b6000806000806000806000806000806101408b8d0312156122ca57600080fd5b60008b013567ffffffffffffffff8111156122e457600080fd5b6122f08d828e016121ae565b9a505060208b013567ffffffffffffffff81111561230d57600080fd5b6123198d828e016121ae565b99505060408b013567ffffffffffffffff81111561233657600080fd5b6123428d828e016121ae565b98505060608b013567ffffffffffffffff81111561235f57600080fd5b61236b8d828e016121ae565b975050608061237c8d828e01612202565b96505060a08b013567ffffffffffffffff81111561239957600080fd5b6123a58d828e016121ae565b95505060c08b013567ffffffffffffffff8111156123c257600080fd5b6123ce8d828e016121ae565b94505060e08b013567ffffffffffffffff8111156123eb57600080fd5b6123f78d828e016121ae565b9350506101008b013567ffffffffffffffff81111561241557600080fd5b6124218d828e016121ae565b9250506101206124338d828e01612184565b9150509295989b9194979a5092959850565b600080600080600080600060e0888a03121561246057600080fd5b600088013567ffffffffffffffff81111561247a57600080fd5b6124868a828b016121ae565b975050602088013567ffffffffffffffff8111156124a357600080fd5b6124af8a828b016121ae565b96505060406124c08a828b01612202565b95505060606124d18a828b01612184565b945050608088013567ffffffffffffffff8111156124ee57600080fd5b6124fa8a828b016121ae565b93505060a061250b8a828b01612202565b92505060c088013567ffffffffffffffff81111561252857600080fd5b6125348a828b016121ae565b91505092959891949750929550565b60006020828403121561255557600080fd5b600061256384828501612202565b91505092915050565b612575816128c9565b82525050565b6000612586826128a2565b61259081856128be565b93506125a0818560208601612926565b80840191505092915050565b60006125b782612897565b6125c181856128ad565b93506125d1818560208601612926565b6125da81612959565b840191505092915050565b60006125f082612897565b6125fa81856128be565b935061260a818560208601612926565b80840191505092915050565b61261f8161290d565b82525050565b600061263182846125e5565b915081905092915050565b6000612648828461257b565b915081905092915050565b6000608082019050612668600083018761256c565b612675602083018661256c565b818103604083015261268781856125ac565b9050818103606083015261269b81846125ac565b905095945050505050565b60006101608201905081810360008301526126c1818e6125ac565b905081810360208301526126d5818d6125ac565b905081810360408301526126e9818c6125ac565b905081810360608301526126fd818b6125ac565b905061270c608083018a612616565b81810360a083015261271e81896125ac565b905081810360c083015261273281886125ac565b905081810360e083015261274681876125ac565b905081810361010083015261275b81866125ac565b905061276b61012083018561256c565b612779610140830184612616565b9c9b505050505050505050505050565b60006101008201905081810360008301526127a4818b6125ac565b905081810360208301526127b8818a6125ac565b90506127c76040830189612616565b6127d4606083018861256c565b81810360808301526127e681876125ac565b90506127f560a0830186612616565b81810360c083015261280781856125ac565b905061281660e0830184612616565b9998505050505050505050565b60006020820190506128386000830184612616565b92915050565b6000604051905081810181811067ffffffffffffffff8211171561286157600080fd5b8060405250919050565b600067ffffffffffffffff82111561288257600080fd5b601f19601f8301169050602081019050919050565b600081519050919050565b600081519050919050565b600082825260208201905092915050565b600081905092915050565b60006128d4826128ed565b9050919050565b60006128e6826128ed565b9050919050565b600073ffffffffffffffffffffffffffffffffffffffff82169050919050565b6000819050919050565b82818337600083830152505050565b60005b83811015612944578082015181840152602081019050612929565b83811115612953576000848401525b50505050565b6000601f19601f8301169050919050565b612973816128c9565b811461297e57600080fd5b50565b61298a816128db565b811461299557600080fd5b50565b6129a18161290d565b81146129ac57600080fd5b5056fea365627a7a72315820484f5d6e706396fa2770d359aee9e3f32f6bfb12fc5e5c79edf22e6a13d18b286c6578706572696d656e74616cf564736f6c63430005100040",
  "source": "pragma solidity >=0.4.21 <0.7.0;\r\n\r\npragma experimental ABIEncoderV2;\r\n\r\ncontract Supply_chain{\r\n     struct parts{\r\n        string part_id;\r\n        string part_name;\r\n        uint part_weight;\r\n        \r\n        address owner;\r\n        string mfg_date;\r\n        uint price;\r\n        string part_location;\r\n\r\n        uint sl_no;\r\n    }\r\n    mapping(uint => parts) public parts_lists;\r\n    uint public number_of_parts;\r\n\r\n    struct buy_part_details{\r\n        address buyer_address;\r\n        address seller_address;\r\n        string part_id;\r\n        string transaction_date;\r\n    }\r\n    mapping(uint=>buy_part_details) public list_of_buy_part_details;\r\n    uint public number_of_buyed_parts;\r\n\r\n    struct car{\r\n        string vin;\r\n        string model_name;\r\n        string mfg_location;\r\n        string mfg_date;\r\n        uint price;\r\n\r\n        string engine_pid;\r\n        string battery_pid;\r\n        string brakes_pid;\r\n        string wheels_pid;\r\n\r\n        address owner;\r\n        uint sl_no;\r\n    }\r\n    uint public number_of_cars;\r\n    mapping(uint => car) public cars_lists;\r\n\r\n    struct buy_car_details{\r\n        address buyer_address;\r\n        address seller_address;\r\n        string vin;\r\n        string transaction_date;\r\n    }\r\n    mapping(uint=>buy_car_details) public list_of_buy_car_details;\r\n    uint public number_of_buyed_cars;\r\n\r\n    constructor() public{\r\n        number_of_parts = 0;\r\n        number_of_buyed_parts = 0 ;\r\n        number_of_cars = 0;\r\n        number_of_buyed_cars = 0;\r\n    }\r\n\r\n    function addParts(string memory _partId,string memory  _partname, uint _partWeight,address _owner, string memory  _mfgDate, uint _price,string memory _location)public {\r\n        number_of_parts = number_of_parts + 1;\r\n        parts_lists[number_of_parts] = parts(_partId, _partname , _partWeight, _owner, _mfgDate,_price,_location, number_of_parts);\r\n    }\r\n    \r\n    function buyParts(address payable _buyer,address payable _seller, string memory _partid,  string memory _trdate) public{\r\n        number_of_buyed_parts = number_of_buyed_parts + 1;\r\n        list_of_buy_part_details[number_of_buyed_parts] = buy_part_details(_buyer,_seller,_partid,_trdate);\r\n        uint i = 1;\r\n        uint x = 0;\r\n        while(i<=number_of_parts){\r\n            parts memory p = parts_lists[i];\r\n            if(keccak256(abi.encodePacked(p.part_id)) == keccak256(abi.encodePacked(_partid))){\r\n                p.owner = _buyer;\r\n                parts_lists[i] = p;\r\n                x = p.price;\r\n                break;\r\n            }\r\n            i = i + 1;\r\n        }\r\n    }\r\n\r\n    function buildCar(string memory _vin,string memory _model_name, string memory _mfg_location,string memory _mfg_date, \r\n                      uint _price, string memory _pid1, string memory _pid2, string memory _pid3, string memory _pid4, address _owner)\r\n                       public{\r\n        number_of_cars = number_of_cars + 1;\r\n        cars_lists[number_of_cars] = car(_vin,_model_name,_mfg_location,_mfg_date,_price,_pid1,_pid2,_pid3,\r\n                                        _pid4,_owner,number_of_cars);\r\n    }\r\n\r\n    function buyCar(address payable _buyer,address payable _seller, string memory _vin,  string memory _trdate1) public{\r\n        number_of_buyed_cars = number_of_buyed_cars + 1;\r\n        list_of_buy_car_details[number_of_buyed_cars] = buy_car_details(_buyer,_seller,_vin,_trdate1);\r\n        uint i = 1;\r\n        uint x = 0;\r\n        while(i<=number_of_cars){\r\n            car memory c = cars_lists[i];\r\n            if(keccak256(abi.encodePacked(c.vin)) == keccak256(abi.encodePacked(_vin))){\r\n                c.owner = _buyer;\r\n                cars_lists[i] = c;\r\n                x = c.price;\r\n                break;\r\n            }\r\n            i = i + 1;\r\n        }\r\n    }\r\n    \r\n}",
  "sourcePath": "C:\\Users\\user\\automobile_supply_chain_v2\\contracts\\Supply_chain.sol",
  "compiler": {
    "name": "solc",
    "version": "0.5.16+commit.9c3226ce.Emscripten.clang"
  },
  "schemaVersion": "3.2.2",
  "updatedAt": "2020-08-02T09:16:10.937Z",
  "networkType": "ethereum",
  "devdoc": {
    "methods": {}
  },
  "userdoc": {
    "methods": {}
  }
}